{
  "abi": [
    {
      "inputs": [
        {
          "internalType": "address",
          "name": "_newRequestAddress",
          "type": "address"
        }
      ],
      "stateMutability": "nonpayable",
      "type": "constructor"
    },
    {
      "anonymous": false,
      "inputs": [
        {
          "indexed": false,
          "internalType": "uint256",
          "name": "id",
          "type": "uint256"
        },
        {
          "indexed": false,
          "internalType": "uint256",
          "name": "prediction",
          "type": "uint256"
        },
        {
          "indexed": false,
          "internalType": "uint256",
          "name": "nonce",
          "type": "uint256"
        }
      ],
      "name": "NewBlock",
      "type": "event"
    },
    {
      "anonymous": false,
      "inputs": [
        {
          "indexed": false,
          "internalType": "uint256",
          "name": "id",
          "type": "uint256"
        },
        {
          "indexed": false,
          "internalType": "string",
          "name": "dataCID",
          "type": "string"
        },
        {
          "indexed": false,
          "internalType": "uint256",
          "name": "tip",
          "type": "uint256"
        }
      ],
      "name": "ReceivedRequest",
      "type": "event"
    },
    {
      "stateMutability": "payable",
      "type": "fallback"
    },
    {
      "inputs": [
        {
          "internalType": "address",
          "name": "_owner",
          "type": "address"
        },
        {
          "internalType": "address",
          "name": "_spender",
          "type": "address"
        }
      ],
      "name": "allowance",
      "outputs": [
        {
          "internalType": "uint256",
          "name": "",
          "type": "uint256"
        }
      ],
      "stateMutability": "view",
      "type": "function"
    },
    {
      "inputs": [
        {
          "internalType": "address",
          "name": "_owner",
          "type": "address"
        }
      ],
      "name": "balanceOf",
      "outputs": [
        {
          "internalType": "uint256",
          "name": "",
          "type": "uint256"
        }
      ],
      "stateMutability": "view",
      "type": "function"
    },
    {
      "inputs": [],
      "name": "canGetVariables",
      "outputs": [
        {
          "internalType": "bool",
          "name": "",
          "type": "bool"
        }
      ],
      "stateMutability": "view",
      "type": "function"
    },
    {
      "inputs": [
        {
          "internalType": "bytes32",
          "name": "_data",
          "type": "bytes32"
        }
      ],
      "name": "getAddressStorage",
      "outputs": [
        {
          "internalType": "address",
          "name": "",
          "type": "address"
        }
      ],
      "stateMutability": "view",
      "type": "function"
    },
    {
      "inputs": [],
      "name": "getCurrentVariables",
      "outputs": [
        {
          "internalType": "bytes32",
          "name": "",
          "type": "bytes32"
        },
        {
          "internalType": "uint256",
          "name": "",
          "type": "uint256"
        },
        {
          "internalType": "uint256",
          "name": "",
          "type": "uint256"
        },
        {
          "internalType": "string",
          "name": "",
          "type": "string"
        }
      ],
      "stateMutability": "view",
      "type": "function"
    },
    {
      "inputs": [
        {
          "internalType": "bytes32",
          "name": "_data",
          "type": "bytes32"
        }
      ],
      "name": "getUintStorage",
      "outputs": [
        {
          "internalType": "uint256",
          "name": "",
          "type": "uint256"
        }
      ],
      "stateMutability": "view",
      "type": "function"
    },
    {
      "inputs": [],
      "name": "totalSupply",
      "outputs": [
        {
          "internalType": "uint256",
          "name": "",
          "type": "uint256"
        }
      ],
      "stateMutability": "view",
      "type": "function"
    },
    {
      "inputs": [
        {
          "internalType": "address",
          "name": "_newOwner",
          "type": "address"
        }
      ],
      "name": "updateOwner",
      "outputs": [],
      "stateMutability": "nonpayable",
      "type": "function"
    },
    {
      "inputs": [
        {
          "internalType": "address",
          "name": "_newRequest",
          "type": "address"
        }
      ],
      "name": "updateRequest",
      "outputs": [],
      "stateMutability": "nonpayable",
      "type": "function"
    },
    {
      "stateMutability": "payable",
      "type": "receive"
    }
  ],
  "bytecode": {
    "object": "0x608060405234801561001057600080fd5b506040516108a83803806108a883398101604081905261002f916100c4565b60016020527f48fd7a93cfa341e6cb6c0df2f8e86ea069baf1bc8de9e2a89933b8005c6bc06380546001600160a01b039092166001600160a01b03199283161790557f02016836a56b71f0d02689e69e326f4f4c1b9057164ef592671cf0d37c8040c06000527f14748f6bfff2d8158c3447bdb0641e791ab47d274e214ef85cf9b2fc9b5d7c5a8054909116331790556100f4565b6000602082840312156100d657600080fd5b81516001600160a01b03811681146100ed57600080fd5b9392505050565b6107a5806101036000396000f3fe60806040526004361061008a5760003560e01c8063a1f772b011610059578063a1f772b0146101f4578063a22e407a14610214578063afc3602b14610239578063c4dab31714610259578063dd62ed3e146102c157610091565b806318160ddd146101105780632a90bbb21461017c57806370a08231146101b4578063880cdc31146101d457610091565b3661009157005b7f220ad9c5a68385514a63a3fa7cd8b0366c6391f0c28e3e9ffe987a69466767fb600090815260016020527f48fd7a93cfa341e6cb6c0df2f8e86ea069baf1bc8de9e2a89933b8005c6bc063546040516001600160a01b0390911691369082376000803683855af43d806000843e81801561010a578184f35b8184fd5b005b34801561011c57600080fd5b507f7c80aa9fdbfaf9615e4afc7f5f722e265daca5ccc655360fa5ccacf9c267936d60009081526020527f40064080258df11e5aaafbd413be1127e264a9b1756d57637675abbbd72d992c545b6040519081526020015b60405180910390f35b34801561018857600080fd5b5061019c61019736600461064e565b6102e1565b6040516001600160a01b039091168152602001610173565b3480156101c057600080fd5b506101696101cf366004610683565b610300565b3480156101e057600080fd5b5061010e6101ef366004610683565b61031e565b34801561020057600080fd5b5061010e61020f366004610683565b61032c565b34801561022057600080fd5b50610229610337565b604051610173949392919061069e565b34801561024557600080fd5b5061016961025436600461064e565b610356565b34801561026557600080fd5b507f9d35db82da5d0cf70eb254e4850bba2332d9a0dd52374be5ffb3866e6f97269b600090815260209081527fff5d7edec2026584d33c93ab27da72df13b658a76db75404e1eb08c438762db554604051901515815201610173565b3480156102cd57600080fd5b506101696102dc366004610702565b61036a565b6000818152600160205260408120546001600160a01b03165b92915050565b6001600160a01b0381166000908152600560205260408120546102fa565b61032960008261039a565b50565b61032960008261046d565b60008060006060610348600061053b565b935093509350935090919293565b6000818152602081905260408120546102fa565b6001600160a01b0380831660009081526006602090815260408083209385168352929052908120545b9392505050565b7f02016836a56b71f0d02689e69e326f4f4c1b9057164ef592671cf0d37c8040c060009081526001830160205260409020546001600160a01b0316331461041a5760405162461bcd60e51b815260206004820152600f60248201526e2737ba1030baba3437b934b9b2b21760891b60448201526064015b60405180910390fd5b7f02016836a56b71f0d02689e69e326f4f4c1b9057164ef592671cf0d37c8040c06000908152600192909201602052604090912080546001600160a01b0319166001600160a01b03909216919091179055565b7f02016836a56b71f0d02689e69e326f4f4c1b9057164ef592671cf0d37c8040c060009081526001830160205260409020546001600160a01b031633146104e85760405162461bcd60e51b815260206004820152600f60248201526e2737ba1030baba3437b934b9b2b21760891b6044820152606401610411565b7f220ad9c5a68385514a63a3fa7cd8b0366c6391f0c28e3e9ffe987a69466767fb6000908152600192909201602052604090912080546001600160a01b0319166001600160a01b03909216919091179055565b60028101547f7584d7d8701714da9c117f5bf30af73b0b88aca5338a84a21eb28de2fe0d93b8600090815260208381526040808320547fb12aff7664b16cb99339be399b863feecd64d14817be7e1f042f97e3f358e64e8452818420548185526004870190935290832080549394859485946060949293909181906105bf90610735565b80601f01602080910402602001604051908101604052809291908181526020018280546105eb90610735565b80156106385780601f1061060d57610100808354040283529160200191610638565b820191906000526020600020905b81548152906001019060200180831161061b57829003601f168201915b5050505050905093509350935093509193509193565b60006020828403121561066057600080fd5b5035919050565b80356001600160a01b038116811461067e57600080fd5b919050565b60006020828403121561069557600080fd5b61039382610667565b84815260006020858184015284604084015260806060840152835180608085015260005b818110156106de5785810183015185820160a0015282016106c2565b50600060a0828601015260a0601f19601f8301168501019250505095945050505050565b6000806040838503121561071557600080fd5b61071e83610667565b915061072c60208401610667565b90509250929050565b600181811c9082168061074957607f821691505b60208210810361076957634e487b7160e01b600052602260045260246000fd5b5091905056fea26469706673582212201b8baa69209089988e55144a0502d52645d8e28b36d2fa25777e92196447ee2264736f6c63430008150033",
    "linkReferences": {}
  },
  "methodIdentifiers": {
    "allowance(address,address)": "dd62ed3e",
    "balanceOf(address)": "70a08231",
    "canGetVariables()": "c4dab317",
    "getAddressStorage(bytes32)": "2a90bbb2",
    "getCurrentVariables()": "a22e407a",
    "getUintStorage(bytes32)": "afc3602b",
    "totalSupply()": "18160ddd",
    "updateOwner(address)": "880cdc31",
    "updateRequest(address)": "a1f772b0"
  },
  "id": 5
}