{
  "abi": [
    {
      "inputs": [
        {
          "internalType": "address",
          "name": "_implAddress",
          "type": "address"
        }
      ],
      "stateMutability": "nonpayable",
      "type": "constructor"
    },
    {
      "anonymous": false,
      "inputs": [
        {
          "indexed": false,
          "internalType": "address",
          "name": "newAddress",
          "type": "address"
        }
      ],
      "name": "EthMLContractChanged",
      "type": "event"
    },
    {
      "anonymous": false,
      "inputs": [
        {
          "indexed": false,
          "internalType": "string",
          "name": "dataCID",
          "type": "string"
        },
        {
          "indexed": false,
          "internalType": "uint256",
          "name": "tip",
          "type": "uint256"
        },
        {
          "indexed": false,
          "internalType": "uint256",
          "name": "requestId",
          "type": "uint256"
        }
      ],
      "name": "NewRequest",
      "type": "event"
    },
    {
      "anonymous": false,
      "inputs": [
        {
          "indexed": false,
          "internalType": "uint256",
          "name": "requestId",
          "type": "uint256"
        },
        {
          "indexed": false,
          "internalType": "uint256",
          "name": "prediction",
          "type": "uint256"
        }
      ],
      "name": "ReceivedPrediction",
      "type": "event"
    },
    {
      "inputs": [
        {
          "internalType": "bytes32",
          "name": "_passCode",
          "type": "bytes32"
        }
      ],
      "name": "getLatestResponse",
      "outputs": [
        {
          "internalType": "uint256",
          "name": "",
          "type": "uint256"
        }
      ],
      "stateMutability": "view",
      "type": "function"
    },
    {
      "inputs": [
        {
          "internalType": "uint256",
          "name": "_id",
          "type": "uint256"
        },
        {
          "internalType": "uint256",
          "name": "_prediction",
          "type": "uint256"
        }
      ],
      "name": "requestCallback",
      "outputs": [],
      "stateMutability": "nonpayable",
      "type": "function"
    },
    {
      "inputs": [
        {
          "internalType": "string",
          "name": "_dataCID",
          "type": "string"
        },
        {
          "internalType": "uint256",
          "name": "_tip",
          "type": "uint256"
        }
      ],
      "name": "requestPrediction",
      "outputs": [],
      "stateMutability": "nonpayable",
      "type": "function"
    }
  ],
  "bytecode": {
    "object": "0x608060405234801561001057600080fd5b5060405161056238038061056283398101604081905261002f91610062565b60008054336001600160a01b031991821617909155600180549091166001600160a01b0392909216919091179055610092565b60006020828403121561007457600080fd5b81516001600160a01b038116811461008b57600080fd5b9392505050565b6104c1806100a16000396000f3fe608060405234801561001057600080fd5b50600436106100415760003560e01c806320b00699146100465780634978f7801461005b57806371f4ed5e14610080575b600080fd5b610059610054366004610335565b610093565b005b61006e610069366004610357565b61019e565b60405190815260200160405180910390f35b61005961008e366004610370565b6101f2565b600082815260026020526040902054829060ff166100ee5760405162461bcd60e51b8152602060048201526013602482015272496e76616c696420726571756573742069642160681b60448201526064015b60405180910390fd5b6001546001600160a01b0316331461013a5760405162461bcd60e51b815260206004820152600f60248201526e4e6f7420617574686f72697a65642160881b60448201526064016100e5565b60048390556000838152600260209081526040808320805460ff19169055600382529182902084905581518581529081018490527f10d5e01edbb6c1b87b2d5d9b11d10bd3965b54d0eaab93abb9804a8b5b87cb68910160405180910390a1505050565b600060055482146101db5760405162461bcd60e51b815260206004820152600760248201526609cde40c2eae8d60cb1b60448201526064016100e5565b505060045460009081526003602052604090205490565b61023183838080601f01602080910402602001604051908101604052809392919081815260200183838082843760009201919091525061030292505050565b6005556001546040516001600160a01b039091169060009061025b90869086908690602401610411565b60408051601f198184030181529181526020820180516001600160e01b03166338fa76af60e11b1781529051825192935060009290918391829182885af1503d6000823e5160008181526002602052604090819020805460ff19166001179055519091507fdd769ef05d7f927a4b3cda8431196b9400f664392f76e581b77f9f64042487e6906102f2908890889088908690610435565b60405180910390a1505050505050565b60008082604051602001610316919061045c565b60408051601f1981840301815291905280516020909101209392505050565b6000806040838503121561034857600080fd5b50508035926020909101359150565b60006020828403121561036957600080fd5b5035919050565b60008060006040848603121561038557600080fd5b833567ffffffffffffffff8082111561039d57600080fd5b818601915086601f8301126103b157600080fd5b8135818111156103c057600080fd5b8760208285010111156103d257600080fd5b6020928301989097509590910135949350505050565b81835281816020850137506000828201602090810191909152601f909101601f19169091010190565b6040815260006104256040830185876103e8565b9050826020830152949350505050565b6060815260006104496060830186886103e8565b6020830194909452506040015292915050565b6000825160005b8181101561047d5760208186018101518583015201610463565b50600092019182525091905056fea26469706673582212202d05742ad8c1a933922c335eeb79956a770f7df1d39396d96d2ed9f113469eb364736f6c63430008150033",
    "linkReferences": {}
  },
  "methodIdentifiers": {
    "getLatestResponse(bytes32)": "4978f780",
    "requestCallback(uint256,uint256)": "20b00699",
    "requestPrediction(string,uint256)": "71f4ed5e"
  },
  "id": 4
}