{
  "abi": [
    {
      "anonymous": false,
      "inputs": [
        {
          "indexed": true,
          "internalType": "address",
          "name": "_owner",
          "type": "address"
        },
        {
          "indexed": true,
          "internalType": "address",
          "name": "_spender",
          "type": "address"
        },
        {
          "indexed": false,
          "internalType": "uint256",
          "name": "_value",
          "type": "uint256"
        }
      ],
      "name": "Approval",
      "type": "event"
    },
    {
      "anonymous": false,
      "inputs": [
        {
          "indexed": false,
          "internalType": "uint256",
          "name": "id",
          "type": "uint256"
        },
        {
          "indexed": false,
          "internalType": "uint256",
          "name": "prediction",
          "type": "uint256"
        },
        {
          "indexed": false,
          "internalType": "uint256",
          "name": "nonce",
          "type": "uint256"
        }
      ],
      "name": "NewBlock",
      "type": "event"
    },
    {
      "anonymous": false,
      "inputs": [
        {
          "indexed": false,
          "internalType": "uint256",
          "name": "id",
          "type": "uint256"
        },
        {
          "indexed": false,
          "internalType": "string",
          "name": "dataCID",
          "type": "string"
        },
        {
          "indexed": false,
          "internalType": "uint256",
          "name": "tip",
          "type": "uint256"
        }
      ],
      "name": "ReceivedRequest",
      "type": "event"
    },
    {
      "anonymous": false,
      "inputs": [
        {
          "indexed": true,
          "internalType": "address",
          "name": "_from",
          "type": "address"
        },
        {
          "indexed": true,
          "internalType": "address",
          "name": "_to",
          "type": "address"
        },
        {
          "indexed": false,
          "internalType": "uint256",
          "name": "_value",
          "type": "uint256"
        }
      ],
      "name": "Transfer",
      "type": "event"
    },
    {
      "inputs": [
        {
          "internalType": "address",
          "name": "_spender",
          "type": "address"
        },
        {
          "internalType": "uint256",
          "name": "_value",
          "type": "uint256"
        }
      ],
      "name": "approve",
      "outputs": [
        {
          "internalType": "bool",
          "name": "",
          "type": "bool"
        }
      ],
      "stateMutability": "nonpayable",
      "type": "function"
    },
    {
      "inputs": [],
      "name": "decimals",
      "outputs": [
        {
          "internalType": "uint256",
          "name": "",
          "type": "uint256"
        }
      ],
      "stateMutability": "pure",
      "type": "function"
    },
    {
      "inputs": [],
      "name": "name",
      "outputs": [
        {
          "internalType": "string",
          "name": "",
          "type": "string"
        }
      ],
      "stateMutability": "pure",
      "type": "function"
    },
    {
      "inputs": [
        {
          "internalType": "string",
          "name": "_dataCID",
          "type": "string"
        },
        {
          "internalType": "uint256",
          "name": "_tip",
          "type": "uint256"
        }
      ],
      "name": "requestPrediction",
      "outputs": [
        {
          "internalType": "uint256",
          "name": "",
          "type": "uint256"
        }
      ],
      "stateMutability": "nonpayable",
      "type": "function"
    },
    {
      "inputs": [
        {
          "internalType": "uint256",
          "name": "_id",
          "type": "uint256"
        },
        {
          "internalType": "uint256",
          "name": "_prediction",
          "type": "uint256"
        },
        {
          "internalType": "uint256",
          "name": "_nonce",
          "type": "uint256"
        }
      ],
      "name": "submitMiningSolution",
      "outputs": [],
      "stateMutability": "nonpayable",
      "type": "function"
    },
    {
      "inputs": [],
      "name": "symbol",
      "outputs": [
        {
          "internalType": "string",
          "name": "",
          "type": "string"
        }
      ],
      "stateMutability": "pure",
      "type": "function"
    },
    {
      "inputs": [
        {
          "internalType": "address",
          "name": "_to",
          "type": "address"
        },
        {
          "internalType": "uint256",
          "name": "_value",
          "type": "uint256"
        }
      ],
      "name": "transfer",
      "outputs": [
        {
          "internalType": "bool",
          "name": "",
          "type": "bool"
        }
      ],
      "stateMutability": "nonpayable",
      "type": "function"
    },
    {
      "inputs": [
        {
          "internalType": "address",
          "name": "_from",
          "type": "address"
        },
        {
          "internalType": "address",
          "name": "_to",
          "type": "address"
        },
        {
          "internalType": "uint256",
          "name": "_value",
          "type": "uint256"
        }
      ],
      "name": "transferFrom",
      "outputs": [
        {
          "internalType": "bool",
          "name": "",
          "type": "bool"
        }
      ],
      "stateMutability": "nonpayable",
      "type": "function"
    },
    {
      "inputs": [
        {
          "internalType": "address",
          "name": "_from",
          "type": "address"
        },
        {
          "internalType": "address",
          "name": "_to",
          "type": "address"
        },
        {
          "internalType": "uint256",
          "name": "_value",
          "type": "uint256"
        }
      ],
      "name": "transferFromTest",
      "outputs": [
        {
          "internalType": "bool",
          "name": "",
          "type": "bool"
        }
      ],
      "stateMutability": "nonpayable",
      "type": "function"
    },
    {
      "inputs": [
        {
          "internalType": "address",
          "name": "_to",
          "type": "address"
        },
        {
          "internalType": "uint256",
          "name": "_value",
          "type": "uint256"
        }
      ],
      "name": "transferTest",
      "outputs": [
        {
          "internalType": "bool",
          "name": "",
          "type": "bool"
        }
      ],
      "stateMutability": "nonpayable",
      "type": "function"
    }
  ],
  "bytecode": {
    "object": "0x608060405234801561001057600080fd5b5061166e806100206000396000f3fe608060405234801561001057600080fd5b506004361061009e5760003560e01c80633982024411610066578063398202441461013657806371f4ed5e1461014b57806375dce2b31461015e57806395d89b4114610171578063a9059cbb1461011257600080fd5b806306fdde03146100a3578063095ea7b3146100dc57806323b872dd146100ff5780632d36e22414610112578063313ce56714610125575b600080fd5b60408051808201909152600b81526a20b939b43a902a37b5b2b760a91b60208201525b6040516100d39190611260565b60405180910390f35b6100ef6100ea36600461128f565b610190565b60405190151581526020016100d3565b6100ef61010d3660046112b9565b6101a6565b6100ef61012036600461128f565b6101bc565b60125b6040519081526020016100d3565b6101496101443660046112f5565b6101c9565b005b610128610159366004611321565b6101db565b6100ef61016c3660046112b9565b61021e565b60408051808201909152600381526241525360e81b60208201526100c6565b600061019d81848461022c565b90505b92915050565b60006101b48185858561029b565b949350505050565b600061019d81848461037c565b6101d66000848484610394565b505050565b60006101b484848080601f0160208091040260200160405190810160405280939291908181526020018383808284376000920182905250939250869150506104cc565b60006101b481858585610831565b33600081815260068501602090815260408083206001600160a01b038716808552925280832085905551919290917f8c5be1e5ebec7d5bd14f71427d1e84f3dd0314c0f7b2291e5b200ac8c7c3b925906102899086815260200190565b60405180910390a35060019392505050565b6001600160a01b0383166000908152600685016020908152604080832033845290915281205482111561032a5760405162461bcd60e51b815260206004820152602c60248201527f6e6f7420616c6c6f77656420746f207472616e7366657220746865207370656360448201526b1a599a595908185b5bdd5b9d60a21b60648201526084015b60405180910390fd5b6001600160a01b038416600090815260068601602090815260408083203384529091528120805484929061035f9084906113af565b9091555061037190508585858561083b565b506001949350505050565b600061038a8433858561083b565b5060019392505050565b60008381526004850160209081526040808320338452600981019092529091205460ff161561041a5760405162461bcd60e51b815260206004820152602c60248201527f416c7265616479207375626d6974746564207468652076616c756520666f722060448201526b3a3432903932b8bab2b9ba1760a11b6064820152608401610321565b6104248583610958565b828160040182600301546002811061043e5761043e6113c2565b01553360008181526009830160205260409020805460ff191660011790556003820154600683019060028110610476576104766113c2565b0180546001600160a01b0319166001600160a01b03929092169190911790556003810180549060006104a7836113d8565b919050555080600301546002036104c5576104c3858584610a36565b505b5050505050565b6000805160206115f98339815191526000908152602084905260408082206101f490557f05de9147d05477c0a5dc675aeea733157f5092f82add148cf39d579cafe3dc98825281208054829182610522836113d8565b9091555060008181526004870160205260409020909150806105448682611487565b50600180820180546001600160a01b03191633179055600282018390557f0f3fe971129295ad98fb77108128ec4c94083ec495d6ae9d7f14797c097eba916000908152600a830160209081526040808320429055600080516020611619833981519152835280832088905560038a01547f1e344bd070f05f1c5b3f0b1266f4f20d837a0a8190a3a2da8b0375eac2ba86ea84528184205560088501805460ff19169094179093556000805160206115d983398151915282528890529081205490036106d7577fde51f251916b3aa9a2c8ba3c001731c4a7abf4ab61324f8fa182ed1b3aca750e6000908152602087905260408082204290557f7584d7d8701714da9c117f5bf30af73b0b88aca5338a84a21eb28de2fe0d93b88252902082905560028601546001808301546001600160a01b03169061068390436113af565b406040516020016106b99392919092835260609190911b6bffffffffffffffffffffffff19166020830152603482015260540190565b60408051601f19818403018152919052805160209091012060028701555b6000805b600388015481101561078857876004016000896003018381548110610702576107026113c2565b6000918252602080832090910154835282019290925260400190206008015460ff166107765787600301818154811061073d5761073d6113c2565b906000526020600020016000905583886003018281548110610761576107616113c2565b60009182526020909120015560019150610788565b80610780816113d8565b9150506106db565b50806107a95760038701805460018101825560009182526020909120018390555b6000805160206115d983398151915260009081526020889052604081208054916107d2836113d8565b909155505084156107eb576107e987333088610831565b505b7f1f46760a6aa40e5f71bd287c2777140ea72700cef65d5df08e529d23109a1cf083878760405161081e93929190611547565b60405180910390a1509095945050505050565b6000610371858585855b6001600160a01b03831660009081526005850160205260409020548111156108a55760405162461bcd60e51b815260206004820152601d60248201527f496e73756666696369656e74207472616e736665722062616c616e63650000006044820152606401610321565b6001600160a01b0383166000908152600585016020526040812080548392906108cf9084906113af565b90915550506001600160a01b0382166000908152600585016020526040812080548392906108fe908490611570565b92505081905550816001600160a01b0316836001600160a01b03167fddf252ad1be2c89b69c2b068fc378daa952ba7f163c4a11628f55a4df523b3ef8360405161094a91815260200190565b60405180910390a350505050565b6000805160206115f983398151915260009081526020839052604081205460028401546109859190611583565b6002840154604080516020808201939093523360601b6bffffffffffffffffffffffff19168183015260548082018790528251808303909101815260749091019091528051910120909150808211610a305760405162461bcd60e51b815260206004820152602860248201527f496e76616c6964206e6f6e636520666f72207468652063757272656e7420636860448201526730b63632b733b29760c11b6064820152608401610321565b50505050565b600082815260048401602090815260408083207fde51f251916b3aa9a2c8ba3c001731c4a7abf4ab61324f8fa182ed1b3aca750e845291869052822054600f90610a8090426113af565b1015610ab9576000805160206115f98339815191526000908152602086905260408120805491610aaf836113d8565b9190505550610b0d565b6000805160206115f9833981519152600090815260208690526040902054610aee90600190610ae99082906113af565b610f93565b6000805160206115f98339815191526000908152602087905260409020555b60008060005b6002811015610bb5576000805b6002811015610b7c57856004018160028110610b3e57610b3e6113c2565b0154866004018460028110610b5557610b556113c2565b015403610b6a5781610b66816113d8565b9250505b80610b74816113d8565b915050610b20565b5082811115610ba257809250846004018260028110610b9d57610b9d6113c2565b015493505b5080610bad816113d8565b915050610b13565b50600183015460405160248101889052604481018490526000916001600160a01b03169060640160408051601f198184030181529181526020820180516001600160e01b03166320b0069960e01b17905251610c1191906115a5565b6000604051808303816000865af19150503d8060008114610c4e576040519150601f19603f3d011682016040523d82523d6000602084013e610c53565b606091505b5050905080610c9d5760405162461bcd60e51b81526020600482015260166024820152754c6f77206c6576656c2063616c6c206661696c65642160501b6044820152606401610321565b60005b6002811015610d4c57610d398930876006018460028110610cc357610cc36113c2565b01547f594d34f771ec633c2f562d96c03f9299763555317b87ad49b1aa8c08079dde0e600090815260208e81526040808320546000805160206116198339815191528452600a8d01909252909120546001600160a01b0390921691610d2a90600590611583565b610d349190611570565b610831565b5080610d44816113d8565b915050610ca0565b507f7c80aa9fdbfaf9615e4afc7f5f722e265daca5ccc655360fa5ccacf9c267936d60009081526020899052604081208054680d8d726b7177a800009290610d95908490611570565b909155505060088401805460ff191690556000878152600489016020526040812090610dc182826111ba565b6001820180546001600160a01b031916905560006002830181905560038301819055600483018190556005830155600060068301819055600783015550600801805460ff191690556000805160206115d98339815191526000908152602089905260408120805491610e32836115c1565b90915550506000805160206115d983398151915260009081526020899052604090205415610f13577fde51f251916b3aa9a2c8ba3c001731c4a7abf4ab61324f8fa182ed1b3aca750e6000908152602089905260409020429055600288015486610e9d6001436113af565b60408051602081019490945283019190915240606082015260800160408051601f1981840301815291905280516020909101206002890155610ede88610fa9565b7f7584d7d8701714da9c117f5bf30af73b0b88aca5338a84a21eb28de2fe0d93b8600090815260208a90526040902055610f44565b7f7584d7d8701714da9c117f5bf30af73b0b88aca5338a84a21eb28de2fe0d93b86000908152602089905260408120555b60408051888152602081018590529081018790527f53a45750a388f2e04d6dfff1108fb3a62e4d65fd986766ed1b19e5ea96ec4e589060600160405180910390a1506001979650505050505050565b6000818311610fa2578161019d565b5090919050565b60008080805b60038501548110156111545782856004016000876003018481548110610fd757610fd76113c2565b90600052602060002001548152602001908152602001600020600a0160007f0f3fe971129295ad98fb77108128ec4c94083ec495d6ae9d7f14797c097eba9160001b8152602001908152602001600020544261103391906113af565b86600401600088600301858154811061104e5761104e6113c2565b90600052602060002001548152602001908152602001600020600a01600060008051602061161983398151915260001b8152602001908152602001600020546110979190611570565b1180156110dd57508460040160008660030183815481106110ba576110ba6113c2565b6000918252602080832090910154835282019290925260400190206008015460ff165b15611142578460040160008660030183815481106110fd576110fd6113c2565b90600052602060002001548152602001908152602001600020600a01600060008051602061161983398151915260001b81526020019081526020016000205492508091505b8061114c816113d8565b915050610faf565b5083600301818154811061116a5761116a6113c2565b60009182526020808320909101548083526004909601815260408083207f1e344bd070f05f1c5b3f0b1266f4f20d837a0a8190a3a2da8b0375eac2ba86ea8452600a019091529020555090919050565b5080546111c690611407565b6000825580601f106111d6575050565b601f0160209004906000526020600020908101906111f491906111f7565b50565b5b8082111561120c57600081556001016111f8565b5090565b60005b8381101561122b578181015183820152602001611213565b50506000910152565b6000815180845261124c816020860160208601611210565b601f01601f19169290920160200192915050565b60208152600061019d6020830184611234565b80356001600160a01b038116811461128a57600080fd5b919050565b600080604083850312156112a257600080fd5b6112ab83611273565b946020939093013593505050565b6000806000606084860312156112ce57600080fd5b6112d784611273565b92506112e560208501611273565b9150604084013590509250925092565b60008060006060848603121561130a57600080fd5b505081359360208301359350604090920135919050565b60008060006040848603121561133657600080fd5b833567ffffffffffffffff8082111561134e57600080fd5b818601915086601f83011261136257600080fd5b81358181111561137157600080fd5b87602082850101111561138357600080fd5b6020928301989097509590910135949350505050565b634e487b7160e01b600052601160045260246000fd5b818103818111156101a0576101a0611399565b634e487b7160e01b600052603260045260246000fd5b6000600182016113ea576113ea611399565b5060010190565b634e487b7160e01b600052604160045260246000fd5b600181811c9082168061141b57607f821691505b60208210810361143b57634e487b7160e01b600052602260045260246000fd5b50919050565b601f8211156101d657600081815260208120601f850160051c810160208610156114685750805b601f850160051c820191505b818110156104c357828155600101611474565b815167ffffffffffffffff8111156114a1576114a16113f1565b6114b5816114af8454611407565b84611441565b602080601f8311600181146114ea57600084156114d25750858301515b600019600386901b1c1916600185901b1785556104c3565b600085815260208120601f198616915b82811015611519578886015182559484019460019091019084016114fa565b50858210156115375787850151600019600388901b60f8161c191681555b5050505050600190811b01905550565b8381526060602082015260006115606060830185611234565b9050826040830152949350505050565b808201808211156101a0576101a0611399565b6000826115a057634e487b7160e01b600052601260045260246000fd5b500490565b600082516115b7818460208701611210565b9190910192915050565b6000816115d0576115d0611399565b50600019019056fe9d35db82da5d0cf70eb254e4850bba2332d9a0dd52374be5ffb3866e6f97269bb12aff7664b16cb99339be399b863feecd64d14817be7e1f042f97e3f358e64e9c35b68a5d39a44a5834c87c06e0905b483f5921b1cdeb093ce2cca2a2349a4ca2646970667358221220d355d130bf02509917ef8b61364edc8777784649568f5de81e1733537257981164736f6c63430008150033",
    "linkReferences": {}
  },
  "methodIdentifiers": {
    "approve(address,uint256)": "095ea7b3",
    "decimals()": "313ce567",
    "name()": "06fdde03",
    "requestPrediction(string,uint256)": "71f4ed5e",
    "submitMiningSolution(uint256,uint256,uint256)": "39820244",
    "symbol()": "95d89b41",
    "transfer(address,uint256)": "a9059cbb",
    "transferFrom(address,address,uint256)": "23b872dd",
    "transferFromTest(address,address,uint256)": "75dce2b3",
    "transferTest(address,uint256)": "2d36e224"
  },
  "id": 6
}